:100000000C942A000C943E000C943C000C943C0090
:100010000C943C000C943C000C943C000C943C0070
:100020000C943C000C943C000C943C000C943C0060
:100030000C943C000C943C000C943C000C943C0050
:100040000C943C000C943C000C943C000C943C0040
:100050000C943C0011241FBECFE5D4E0DEBFCDBF21
:1000600020E0A0E6B0E001C01D92A536B207E1F79E
:100070000E9484000C948F000C9400001F920F9239
:100080000FB60F9211242F933F934F935F938F934B
:100090009F9359B352FB552750F95093640086B390
:1000A0009091630028E030E001C0842F80FD9F5FC5
:1000B000482F469521503109C1F790936300409332
:1000C000600080936200511113C0992359F020E021
:1000D00030E02F5F3F4F220F331F9150D1F7109226
:1000E000630002C020E030E03595279525BB01C0B4
:1000F00095BB9F918F915F914F913F912F910F9061
:100100000FBE0F901F9018951ABA17BA8FEF84BBC5
:1001100080E48BBF83E085BF78940000FECFF89425
:02012000FFCF0F
:00000001FF
