:100000000C942A000C943C000C943C000C943C0092
:100010000C943C000C943C000C943C000C943C0070
:100020000C943C000C943C000C943C000C943C0060
:100030000C943C000C943C000C943C000C943C0050
:100040000C943C000C943C000C943C000C943C0040
:100050000C943C0011241FBECFE5D4E0DEBFCDBF21
:1000600020E0A0E6B0E001C01D92A236B207E1F7A1
:100070000E943E000C9465000C9400008FEF87BB3B
:1000800014BA21E083B38370823021F083B38E7081
:100090008C3019F41092600002C020936000989B8D
:1000A00005C09A9B03C083B38A7019F41092610053
:1000B00002C02093610080916100880F80936100ED
:0E00C00090916000892B88BBDDCFF894FFCFB4
:00000001FF
