:020000020000FC
:040000000C941D003F
:0200200066C0B8
:1000380063C08FE58DBF84E08EBF882744D10E94BE
:10004800E900E0E0F0E08FEF87BB81BB80EF84BB85
:1000580084E089BF85E08EBD36D18CEF8DBD83EFFE
:100068008CBD7894DAD0F7D08030E1F3482FD5D022
:10007800F2D08030E1F3582FD0D0443311F551330A
:1000880001F5F894E0E088271ED187E563D185E47F
:1000980061D18CE45FD183E45DD18FE45BD18DE4E1
:1000A80059D185E457D180E255D184E353D181E316
:1000B80051D130E838BB80EA9FE074D130E038BBDA
:1000C800CBCF24E0203071F036B3306838BB84EFF2
:1000D80091E068D136B33F7738BB84EF91E062D1C5
:1000E8002A95F0CFBFCFF8948FEC86B98CEF8DBDF1
:1000F80083EF8CBD78941895C4B1D5B1D03031F068
:10010800D13041F0D23061F0D33061F0C23760F0C5
:10011800CF3C68F0CC3270F0CA3870F0C73E70F04F
:10012800C43470F0CF3F70F011E018BB15C013E075
:1001380018BB12C017E008C01FE006C01FE104C0CA
:100148001FE302C01FE700C0F03019F0F0E010E034
:1001580001C0F1E018BB15C0E03089F0E0E0882765
:10016800B2D083E4F7D08CE4F5D085E4F3D081E411
:10017800F1D082E5EFD088EC90E014D120C0A3D074
:100188001EC0E130E1F0E1E088279DD087E4E2D0AD
:1001980081E4E0D083E5DED080E2DCD084E4DAD00C
:1001A80085E4D8D084E5D6D085E4D4D083E4D2D011
:1001B80084E5D0D085E4CED084E4CCD000C08CEFE8
:1001C8008DBD83EF8CBD7894189580E487B98FE84E
:1001D80086B9089595BB8F939F9384EF91E0ECD0F7
:1001E8009F918F910000000083B38F700895AF93A3
:1001F800BF9390E1EFDF8295B82F90E2EBDFB80F65
:1002080090E4E8DF8295A82F90E8E4DFA80FCD01FD
:10021800AA27A5BBBF91AF9108956F937F93AF9322
:10022800BF93E5DF8F939F938FE090E0BBD0DFDF34
:100238007F916F9186239723A0E6B0E07D916C9122
:100248008C939E937095609586239723BF91AF9169
:100258007F916F910895AF93BF93DC018AE2A0FD6F
:100268002FC080E3A1FD2CC083E2A2FD29C084E455
:10027800A3FD26C087E3A4FD23C088E3A5FD20C015
:1002880089E3A6FD1DC083E4A7FD1AC084E3B0FD81
:1002980017C085E3B1FD14C086E3B2FD11C082E446
:1002A800B3FD0EC081E3B4FD0BC082E3B5FD08C009
:1002B80083E3B6FD05C081E4B7FD02C0882700C00E
:1002C800BF91AF9108958F939F9388E290E06AD091
:1002D80080E382BB939A939887E290E06DD08F93E6
:1002E8009F9388EE93E068D09F918F9180E382BBC3
:1002F800939A939887E290E05FD08F939F9388EECC
:1003080093E05AD09F918F9180E282BB939A939801
:1003180087E290E051D08F939F9388EE93E04CD082
:100328009F918F9188E20CD08CE00AD081E008D0B0
:100338008AEF95E041D086E003D09F918F91089590
:100348008F939F93929810D087E290E035D09F9139
:100358008F9108958F939F93929A06D08BE290E0A5
:100368002BD09F918F9108958F939F9380E797E16A
:1003780023D09F918F918F9390B39F70807F890F27
:1003880082BB939A93988F939F9380E797E114D0B9
:100398009F918F918F918295807F890F82BB939ACD
:1003A800939808958F939F9386EE93E005D09F913D
:1003B8008F910197B9F70895019700000000000098
:0603C8000000D1F70895CA
:00000001FF
