:100000000C942A000C9434000C9434000C943400AA
:100010000C9434000C9434000C9434000C94340090
:100020000C9434000C9434000C9434000C94340080
:100030000C9434000C9434000C9434000C94340070
:100040000C9434000C9434000C9434000C94340060
:100050000C94340011241FBECFE5D4E0DEBFCDBF29
:100060000E9436000C9481000C9400008FEF87BB37
:1000700014BA61E040E083B381FB992790F982FBD9
:10008000222720F983FB332730F9582F517080FD48
:1000900020C0992329F1842F08C03323E9F029C017
:1000A000311105C0842F01C0862F942F0EC0842FDC
:1000B000962F0BC0862F942F08C0862F942F05C033
:1000C000842F962F02C0862F962F990F892B88BBDD
:1000D000D2CF911112C007C05111ECCF862FE5CFBE
:1000E000222311F3DACF2111D8CFE7CF9923C1F220
:1000F000E7CF5111FBCF842FD8CF2111E4CF862F2A
:06010000D4CFF894FFCFFC
:00000001FF
