:100000000C942A000C943C000C943C000C943C0092
:100010000C943C000C943C000C943C000C943C0070
:100020000C947A010C943C000C943C000C943C0021
:100030000C943C000C943C000C948C010C943C00FF
:100040000C943C000C943C000C943C000C943C0040
:100050000C943C0011241FBECFE5D4E0DEBFCDBF21
:1000600020E0A0E6B0E001C01D92A037B207E1F7A2
:100070000E9417020C94CB030C94000085BB87EE02
:1000800093E00197F1F700C0000083B38F700895EB
:10009000CF93DF9380E180936F000E943E008093B6
:1000A0006300C82FC295C07F80E280936F000E94DA
:1000B0003E0080936300C80F80E480936F000E942D
:1000C0003E0080936300D82FD295D07F80E8809344
:1000D0006F000E943E00809363002C2F30E0322F8F
:1000E00022278D0FA901480F511DCA01DF91CF9121
:1000F0000895CF93DF930E944800EC018FE295E7CB
:100100000197F1F700C000000E9448008C239D2356
:1001100020916100309162009093620080936100B1
:100120002095309582239323DF91CF9108958034D9
:10013000910509F447C0D4F484309105D9F164F4F1
:100140008130910509F454C08230910589F18115FF
:10015000904809F04BC048C08031910579F1803258
:10016000910571F1089709F041C026C0811524E07E
:10017000920781F164F4811521E0920739F181152C
:1001800022E0920729F18038910581F51DC0811583
:1001900020E1920719F124F481159840E9F026C076
:1001A000811520E29207E1F081159044D9F01EC03C
:1001B00080E3089583E2089584E4089587E3089531
:1001C00088E3089589E3089583E4089584E3089516
:1001D00085E3089586E3089582E4089581E3089510
:1001E00082E3089583E3089581E4089580E008950B
:1001F0008AE20895EFEDFEE23197F1F700C00000CA
:1002000090B39F70282F207F290F22BB20B3286036
:1002100022BB20B3277F22BBEFEDFEE23197F1F73F
:1002200000C000008295807F980F92BB80B38860E9
:1002300082BB80B3877F82BB089594E092BB0E940B
:10024000FA0082E78A95F1F700C0089512BA0E9479
:10025000FA0088E68A95F1F708958AE68A95F1F71B
:1002600000C090E392BB80B3886082BB80B3877F7D
:1002700082BBE8E6EA95F1F7EFECF7E03197F1F7AA
:1002800000C0000092BB80B3886082BB80B3877FD0
:1002900082BBF8E6FA95F1F78FEC97E00197F1F75A
:1002A00000C0000080E282BB80B3886082BB80B364
:1002B000877F82BB98E69A95F1F7EFECF7E03197EC
:1002C000F1F700C0000088E20E9426018CE00E9445
:1002D000260181E00E94260183EF9BE00197F1F760
:1002E00000C0000086E00E94260108958AE683BFD0
:1002F000BB9A08951F920F920FB60F9211248F93FD
:100300008FE886B98CEF8DBD83EF8CBD8F910F90F8
:100310000FBE0F901F9018951F920F920FB60F925D
:1003200011242F933F934F935F936F937F938F93FA
:100330009F93AF93BF93EF93FF93CF93DF93CDB78B
:10034000DEB72A97DEBFCDBF10926A001092690017
:1003500064B185B170E0782B70936C0060936B0092
:1003600080E090E00E949B0226EF38E24CE950E4E6
:100370000E9401030E946C02DC01CB0190936A0091
:100380008093690090936500809364004AE0BE0109
:100390006F5F7F4F0E9496030E942D0186E50E94A9
:1003A0001D018FE60E941D0181E30E941D018AE06C
:1003B0000E941D018091640090916500883E9340E9
:1003C00068F480E30E941D018CE20E941D01898176
:1003D0000E941D018A810E941D010CC089810E941A
:1003E0001D018CE20E941D018A810E941D018B81EA
:1003F0000E941D018CEF8DBD83EF8CBD2A960FB638
:10040000F894DEBF0FBECDBFDF91CF91FF91EF918A
:10041000BF91AF919F918F917F916F915F914F911C
:100420003F912F910F900FBE0F901F9018950E9433
:100430002D010E9476018FEF81BB80EF84BB84E0A9
:1004400089BF85E08EBD8CEF8DBD83EF8CBD789428
:10045000C0E0DFEF369A0E94790090936E0080939F
:100460006D000E949700809360008823A1F30E9492
:100470007900809160008133B1F4F894CF3F49F462
:100480001CBE8FE79EE30197F1F700C00000C0E0BB
:1004900008C0CF5FCCBF8FE79EE30197F1F700C0A4
:1004A00000007894D7CF8233A9F6F894C03351F482
:1004B000F894DCBF8FE79EE30197F1F700C00000DE
:1004C000CFEF08C0C150CCBF8FE79EE30197F1F793
:1004D00000C000007894BECF0E94E00288F09F57D1
:1004E00098F0B92F9927B751B0F0E1F0660F771F58
:1004F000881F991F1AF0BA95C9F714C0B13091F04E
:100500000E94FA02B1E008950C94FA02672F782F46
:100510008827B85F39F0B93FCCF386957795679512
:10052000B395D9F73EF490958095709561957F4F7E
:100530008F4F9F4F0895E89409C097FB3EF4909524
:100540008095709561957F4F8F4F9F4F9923A9F0AC
:10055000F92F96E9BB279395F6958795779567953B
:10056000B795F111F8CFFAF4BB0F11F460FF1BC07F
:100570006F5F7F4F8F4F9F4F16C0882311F096E912
:1005800011C0772321F09EE8872F762F05C06623C0
:1005900071F096E8862F70E060E02AF09A95660F79
:1005A000771F881FDAF7880F9695879597F9089532
:1005B00057FD9058440F551F59F05F3F71F0479514
:1005C000880F97FB991F61F09F3F79F087950895F9
:1005D000121613061406551FF2CF4695F1DF08C018
:1005E000161617061806991FF1CF86957105610535
:1005F00008940895E894BB2766277727CB0197F9DD
:1006000008950E9414030C9485030E94770338F028
:100610000E947E0320F0952311F00C946E030C943D
:10062000740311240C94FB020E94D80270F3959F6E
:10063000C1F3950F50E0551F629FF001729FBB27D9
:10064000F00DB11D639FAA27F00DB11DAA1F649F75
:100650006627B00DA11D661F829F2227B00DA11D28
:10066000621F739FB00DA11D621F839FA00D611DAE
:10067000221F749F3327A00D611D231F849F600DCF
:10068000211D822F762F6A2F11249F5750409AF0F8
:10069000F1F088234AF0EE0FFF1FBB1F661F771F84
:1006A000881F91505040A9F79E3F510580F00C944F
:1006B0006E030C94FB025F3FE4F3983ED4F38695FF
:1006C00077956795B795F795E7959F5FC1F7FE2BEF
:1006D000880F911D9695879597F9089597F99F67CB
:1006E00080E870E060E008959FEF80EC08950024BA
:1006F0000A941616170618060906089500240A9487
:1007000012161306140605060895092E0394000C0C
:1007100011F4882352F0BB0F40F4BF2B11F460FF9B
:1007200004C06F5F7F4F8F4F9F4F0895BB274A30A4
:1007300031F4992322F4BDE2909581959F4F0C945A
:10074000A203BB27FB015527AA27880F991FAA1FC1
:10075000A41710F0A41B83955051B9F7A05DAA33DC
:1007600008F0A95DA193009779F7B111B1931192A7
:10077000CB010C94BB03DC01FC01672F7191772343
:10078000E1F7329704C07C916D9370836291AE174C
:0A079000BF07C8F30895F894FFCFE7
:00000001FF
