:020000020000FC
:100000008FE58DBF84E08EBFAFEFA7BBA1BB80EFB4
:1000100084BB8827C8D071D08ED08030D1F3482FD0
:100020006CD089D08030E1F3582F67D0443301F58C
:100030005133F1F48827B7D087E5FCD085E4FAD0B6
:100040008CE4F8D083E4F6D08FE4F4D08DE4F2D0E1
:1000500085E4F0D080E2EED084E3ECD081E3EAD016
:100060003FEF38BB80EA9FE00DD1332738BBD1CFBB
:10007000882799D081E4DED08CE4DCD081E4DAD02A
:1000800082E5D8D08DE4D6D080E2D4D08FE4D2D02F
:100090008EE4D0D024E0203061F03FEF38BB84EF15
:1000A00091E0F0D0332738BB84EF91E0EBD02A9574
:1000B000F2CFAFCF95BB8F939F9384EF91E0ECD0BD
:1000C0009F918F910000000083B38F700895AF93CC
:1000D000BF9390E1EFDF8295B82F90E2EBDFB80F8E
:1000E00090E4E8DF8295A82F90E8E4DFA80FCD0127
:1000F000AA27A5BBBF91AF9108956F937F93AF934C
:10010000BF93E5DF8F939F938FE090E0BBD0DFDF5D
:100110007F916F9186239723A0E6B0E07D916C914B
:100120008C939E937095609586239723BF91AF9192
:100130007F916F910895AF93BF93DC018AE2A0FD98
:100140002FC080E3A1FD2CC083E2A2FD29C084E47E
:10015000A3FD26C087E3A4FD23C088E3A5FD20C03E
:1001600089E3A6FD1DC083E4A7FD1AC084E3B0FDAA
:1001700017C085E3B1FD14C086E3B2FD11C082E46F
:10018000B3FD0EC081E3B4FD0BC082E3B5FD08C032
:1001900083E3B6FD05C081E4B7FD02C0882700C037
:1001A000BF91AF9108958F939F9388E290E06AD0BA
:1001B00080E382BB939A939887E290E06DD08F930F
:1001C0009F9388EE93E068D09F918F9180E382BBEC
:1001D000939A939887E290E05FD08F939F9388EEF5
:1001E00093E05AD09F918F9180E282BB939A93982B
:1001F00087E290E051D08F939F9388EE93E04CD0AC
:100200009F918F9188E20CD08CE00AD081E008D0D9
:100210008AEF95E041D086E003D09F918F910895B9
:100220008F939F93929810D087E290E035D09F9162
:100230008F9108958F939F93929A06D08BE290E0CE
:100240002BD09F918F9108958F939F9380E797E193
:1002500023D09F918F918F9390B39F70807F890F50
:1002600082BB939A93988F939F9380E797E114D0E2
:100270009F918F918F918295807F890F82BB939AF6
:10028000939808958F939F9386EE93E005D09F9166
:100290008F910197B9F708950197000000000000C1
:0602A0000000D1F70895F3
:00000001FF
