:100000000C942A000C943C000C943C000C943C0092
:100010000C943C000C943C000C943C000C943C0070
:100020000C943C000C943C000C943C000C943C0060
:100030000C943C000C943C000C943C000C943C0050
:100040000C943C000C943C000C943C000C943C0040
:100050000C943C0011241FBECFE5D4E0DEBFCDBF21
:1000600020E0A0E6B0E001C01D92A936B207E1F79A
:100070000E94FA000C9452010C94000085BB87EE9C
:1000800093E00197F1F700C0000083B38F700895EB
:10009000CF93DF9380E1809368000E943E008093BD
:1000A0006200C82FC295C07F80E2809368000E94E2
:1000B0003E0080936200C80F80E4809368000E9435
:1000C0003E0080936200D82FD295D07F80E8809345
:1000D00068000E943E00809362002C2F30E0322F97
:1000E00022278D0FA901480F511DCA01DF91CF9121
:1000F0000895CF93DF930E944800EC018FE295E7CB
:100100000197F1F700C000000E9448008C239D2356
:1001100020916000309161009093610080936000B5
:100120002095309582239323DF91CF9108958034D9
:10013000910509F447C0D4F484309105D9F164F4F1
:100140008130910509F454C08230910589F18115FF
:10015000904809F04BC048C08031910579F1803258
:10016000910571F1089709F041C026C0811524E07E
:10017000920781F164F4811521E0920739F181152C
:1001800022E0920729F18038910581F51DC0811583
:1001900020E1920719F124F481159840E9F026C076
:1001A000811520E29207E1F081159044D9F01EC03C
:1001B00080E3089583E2089584E4089587E3089531
:1001C00088E3089589E3089583E4089584E3089516
:1001D00085E3089586E3089582E4089581E3089510
:1001E00082E3089583E3089581E4089580E008950B
:1001F0008AE208958FEF87BB80EF84BBCFEF109228
:100200006300109264000E947900909367008093CD
:1002100066000E949700809363008823A1F30E94E8
:10022000790090936700809366000E949700809306
:1002300064008823A1F30E947900809163008433D5
:1002400071F580916400813359F4C8BB2FEF87EAC0
:1002500091E6215080409040E1F700C000001DC0B1
:1002600010926500C8BB2FEF84E39CE021508040D2
:100270009040E1F700C0000018BA2FEF84E39CE043
:10028000215080409040E1F700C00000809165005F
:100290008F5F80936500843028F318BAB0CF109236
:0802A0006500E0CFF894FFCFE8
:00000001FF
