S00B0000342E322E7372656385
S11300000C942A000C943C000C943C000C943C008E
S11300100C943C000C943C000C943C000C943C006C
S11300200C94D5010C943C000C943C000C943C00C2
S11300300C943C000C943C000C94E9010C943C009E
S11300400C943C000C943C000C943C000C943C003C
S11300500C943C0011241FBECFE5D4E0DEBFCDBF1D
S113006020E0A0E6B0E001C01D92AE36B207E1F791
S11300700E9455020C94F6020C94000085BB87EE96
S113008093E00197F1F700C0000083B38F700895E7
S1130090CF93DF9380E180936D000E943E008093B4
S11300A06400C82FC295C07F80E280936D000E94D7
S11300B03E0080936400C80F80E480936D000E942A
S11300C03E0080936400D82FD295D07F80E880933F
S11300D06D000E943E00809364002C2F30E0322F8C
S11300E022278D0FA901480F511DCA01DF91CF911D
S11300F00895CF93DF930E944800EC018FE295E7C7
S11301000197F1F700C000000E9448008C239D2352
S113011020916200309163009093630080936200A9
S11301202095309582239323DF91CF9108958034D5
S1130130910509F447C0D4F484309105D9F164F4ED
S11301408130910509F454C08230910589F18115FB
S1130150904809F04BC048C08031910579F1803254
S1130160910571F1089709F041C026C0811524E07A
S1130170920781F164F4811521E0920739F1811528
S113018022E0920729F18038910581F51DC081157F
S113019020E1920719F124F481159840E9F026C072
S11301A0811520E29207E1F081159044D9F01EC038
S11301B080E3089583E2089584E4089587E308952D
S11301C088E3089589E3089583E4089584E3089512
S11301D085E3089586E3089582E4089581E308950C
S11301E082E3089583E3089581E4089580E0089507
S11301F08AE20895EFEDFEE23197F1F700C00000C6
S113020090B39F70282F207F290F22BB20B3286032
S113021022BB20B3277F22BBEFEDFEE23197F1F73B
S113022000C000008295807F980F92BB80B38860E5
S113023082BB80B3877F82BB089594E092BB0E9407
S1130240FA0082E78A95F1F700C0089512BA0E9475
S1130250FA0088E68A95F1F708958AE68A95F1F717
S113026000C090E392BB80B3886082BB80B3877F79
S113027082BBE8E6EA95F1F7EFECF7E03197F1F7A6
S113028000C0000092BB80B3886082BB80B3877FCC
S113029082BBF8E6FA95F1F78FEC97E00197F1F756
S11302A000C0000080E282BB80B3886082BB80B360
S11302B0877F82BB98E69A95F1F7EFECF7E03197E8
S11302C0F1F700C0000088E20E9426018CE00E9441
S11302D0260181E00E94260183EF9BE00197F1F75C
S11302E000C0000086E00E9426010895809161000C
S11302F0813099F4109261000E942D0183E40E94E0
S11303001D018CE40E941D0185E40E941D0181E40D
S11303100E941D0182E50E941D018CEF8DBD83EFBB
S11303208CBD089580916100811129C081E0809382
S113033061000E942D0187E40E941D0181E40E9456
S11303401D0183E50E941D0180E20E941D0184E4D9
S11303500E941D0185E40E941D0184E50E941D0187
S113036085E40E941D0183E40E941D0184E50E942E
S11303701D0185E40E941D0184E40E941D018CEF8F
S11303808DBD83EF8CBD089580916000811107C0FD
S113039081E0809360008091680088BB03C0109264
S11303A0600018BA0E94920108951F920F920FB62E
S11303B00F9211248F93F8948FEC86B98CEF8DBD36
S11303C083EF8CBD78948F910F900FBE0F901F9088
S11303D018951F920F920FB60F9211242F933F93EB
S11303E04F935F936F937F938F939F93AF93BF9339
S11303F0EF93FF9384B195B18337910528F481E09D
S113040088BB0E9476013BC084B195B1803D9105C3
S113041028F483E088BB0E94760131C084B195B191
S11304208D32914030F487E0809368000E94C401CB
S113043026C084B195B18B38914030F48FE080931D
S113044068000E94C4011BC084B195B1883E9140EC
S113045030F48FE1809368000E94C40110C084B11D
S113046095B18534924030F48FE3809368000E9404
S1130470C40105C08FE7809368000E94C401FF9106
S1130480EF91BF91AF919F918F917F916F915F9108
S11304904F913F912F910F900FBE0F901F90189581
S11304A080E487B98FE886B908950E9450020E94BB
S11304B02D018FEF87BB81BB80EF84BB84E089BFB4
S11304C085E08EBD8CEF8DBD83EF8CBD789410E8F4
S11304D0DCEFC3EF10926500109266000E94790071
S11304E090936C0080936B000E949700809365004A
S11304F08823A1F30E94790090936C0080936B0091
S11305000E949700809366008823A1F30E947900DB
S113051080916500843309F064C080916600813362
S1130520A1F5F8940E942D0187E50E941D0185E440
S11305300E941D018CE40E941D0183E40E941D01A0
S11305408FE40E941D018DE40E941D0185E40E9438
S11305501D0180E20E941D0184E30E941D0181E3CC
S11305600E941D0118BB2FEF87EA91E621508040BD
S11305709040E1F700C0000018BA109261000E9498
S11305802D01DDBDCCBD7894A5CF10926A001092E8
S1130590690086B380688093670088BB2FEF84E38B
S11305A09CE0215080409040E1F700C0000086B3F9
S11305B08F778093670088BB2FEF84E39CE0215002
S11305C080409040E1F700C0000080916900909164
S11305D06A00019690936A00809369000497CCF2B4
S11305E079CF10926A0010926900D3CFF894FFCFAC
S9030000FC
